:020000040800F2
:10000000005000204D5C00082553000831530008C3
:10001000375300083D530008435300080000000018
:10002000000000000000000000000000495300082C
:100030005553000800000000615300086D5300088C
:10004000955C0008955C0008955C0008955C0008CC
:10005000955C0008955C0008955C0008955C0008BC
:10006000955C0008955C0008955C0008955C0008AC
:10007000955C0008955C0008955C0008955C00089C
:10008000955C0008955C0008955C0008955C00088C
:1000900079530008955C0008955C0008955C0008A1
:1000A000955C0008955C0008955C0008955C00086C
:1000B000955C0008955C0008955C0008955C00085C
:1000C000955C0008955C0008955C0008955C00084C
:1000D000955C0008955C0008955C0008955C00083C
:1000E000955C0008955C0008955C00080000000025
:1000F0000000000000000000000000000000000000
:0C01000000000000000000005FF808F1A3
:10010C0010B5054C237833B9044B13B10448AFF345
:10011C0000800123237010BDD001002000000000DE
:10012C00945E000808B5034B1BB103490348AFF3B9
:10013C00008008BD00000000D4010020945E00087F
:10014C0080B500AF084B1B68074A43F010031360DF
:10015C00032000F033FD002000F008F805F06EF8E5
:10016C000023184680BD00BF0020024080B582B03D
:10017C0000AF7860124B1A68124B1B7819464FF47B
:10018C007A73B3FBF1F3B2FBF3F3184600F04BFDBB
:10019C000346002B01D001230EE07B680F2B0AD8FD
:1001AC00002279684FF0FF3000F013FD064A7B689F
:1001BC001360002300E0012318460837BD4680BDBC
:1001CC00DC000020040000200000002080B400AF00
:1001DC00054B1B781A46054B1B681344034A1360E6
:1001EC0000BFBD4680BC70470400002018020020F0
:1001FC0080B400AF024B1B681846BD4680BC7047EC
:10020C001802002080B586B000AF78600023FB7523
:10021C0000233B610023BB600023FB607B68002B49
:10022C0001D10123BEE07B689B68002B7B689B6A35
:10023C00002B09D17B680022DA627B68002283F8EC
:10024C002420786805F02CF8786800F0B1FB0346A0
:10025C00FB757B689B6A03F01003002B40F09980C0
:10026C00FB7D002B40F095807B689B6A23F48853C0
:10027C0023F0020343F002027B689A627B685A689F
:10028C007B68DB691A437B681B7B5B001343BA6892
:10029C001343BB607B689B68B3F5807F03D07B689E
:1002AC009B68012B02D14FF4807300E000233A6964
:1002BC0013433B617B681B7D012B19D17B681B7B36
:1002CC00002B09D17B689B69013B5A033B691343A3
:1002DC0043F400633B610BE07B689B6A43F02002B4
:1002EC007B689A627B68DB6A43F001027B68DA62A6
:1002FC007B681B685B6823F469417B681B683A69FF
:10030C000A435A607B681B689A68284B13407A68CA
:10031C001268B9680B4393607B689B68B3F5807F68
:10032C0003D07B689B68012B04D17B681B69013B64
:10033C001B05FB607B681B68DB6A23F470017B6820
:10034C001B68FA680A43DA627B681B689A68184B68
:10035C001340BA689A420BD17B680022DA627B6840
:10036C009B6A23F0030343F001027B689A6218E056
:10037C007B689B6A23F0120343F010027B689A623D
:10038C007B68DB6A43F001027B68DA620123FB7550
:10039C0007E07B689B6A43F010027B689A6201233A
:1003AC00FB75FB7D18461837BD4680BDFDF7E1FF98
:1003BC00FE0E1FFF80B584B000AF78600023FB7386
:1003CC007B6893F82430012B01D1022398E07B68E1
:1003DC00012283F82420786800F098FA0346FB7316
:1003EC00FB7B002B40F087807B689B6A23F4407377
:1003FC0023F0010343F480727B689A627B681B686C
:10040C00414A934205D1414B5B6803F47023002BA6
:10041C0015D17B689B6A23F480127B689A627B6897
:10042C001B685B6803F48063002B26D07B689B6A97
:10043C0023F4405343F480527B689A621DE07B683E
:10044C009B6A43F480127B689A627B681B682F4A14
:10045C00934204D07B681B682B4A93420DD12B4BE3
:10046C005B6803F48063002B07D07B689B6A23F4E2
:10047C00405343F480527B689A627B689B6A03F416
:10048C008053002B06D07B68DB6A23F006027B6866
:10049C00DA6202E07B680022DA627B68002283F871
:1004AC0024207B681B686FF002021A607B681B6853
:1004BC009B6803F46023B3F5602F13D17B681B6832
:1004CC00114A934205D1114B5B6803F47023002B46
:1004DC0008D17B681B689A687B681B6842F4A00291
:1004EC009A600CE07B681B689A687B681B6842F416
:1004FC0080129A6003E07B68002283F82420FB7B47
:10050C0018461037BD4680BD00280140002401402C
:10051C0090B587B000AF7860396000237B61002311
:10052C00FB6000233B61FFF763FE78617B681B680F
:10053C009B6803F48073002B0BD07B689B6A43F0A1
:10054C0020027B689A627B68002283F824200123B6
:10055C00C8E07B681B685B6803F48073002B2AD1AE
:10056C007B681B68DB6A03F47003002B23D11AE051
:10057C003B68B3F1FF3F16D03B68002B07D0FFF769
:10058C0037FE02467B69D31A3A689A420BD27B68D3
:10059C009B6A43F004027B689A627B68002283F8B2
:1005AC00242003239EE07B681B681B6803F0020376
:1005BC00002BDDD06CE04D4B1C68022002F03CF8A7
:1005CC000346B4FBF3F27B681B681969484B0B407C
:1005DC00002B18D17B681B68D968464B0B40002B4D
:1005EC0011D17B681B681969434B0B40002B08D158
:1005FC007B681B68D968414B0B40002B01D114233D
:10060C0020E029231EE07B681B6819693A4B0B40DC
:10061C00002B06D17B681B68D968384B0B40002B2C
:10062C000DD07B681B681969354B0B40002B08D12A
:10063C007B681B68D968324B0B40002B01D15423CB
:10064C0000E0FC2302FB03F33B611DE03B68B3F1CC
:10065C00FF3F16D03B68002B07D0FFF7C9FD0246C1
:10066C007B69D31A3A689A420BD27B689B6A43F037
:10067C0004027B689A627B68002283F8242003239F
:10068C0030E0FB680133FB60FB683A699A42DDD8C5
:10069C007B681B686FF012021A607B689B6A43F4DC
:1006AC0000727B689A627B681B689B6803F460230A
:1006BC00B3F5602F15D17B681B7B002B11D17B68A8
:1006CC009B6A23F480727B689A627B689B6A03F452
:1006DC008053002B05D17B689B6A43F001027B6839
:1006EC009A62002318461C37BD4690BDDC000020E2
:1006FC0024499224244992009224491292244900BC
:10070C004992240080B483B000AF78607B681B688A
:10071C00DB6C18460C37BD4680BC704780B485B086
:10072C0000AF786039600023FB730023BB607B68EB
:10073C0093F82430012B01D10223DCE07B680122E9
:10074C0083F824203B685B68062B1CD87B681B68ED
:10075C00596B3B685A6813469B001344053B1F2298
:10076C0002FA03F3DB4319403B6818683B685A688C
:10077C0013469B001344053B00FA03F27B681B688D
:10078C000A435A633CE03B685B680C2B1CD87B68C3
:10079C001B68196B3B685A6813469B001344233B38
:1007AC001F2202FA03F3DB4319403B6818683B68CD
:1007BC005A6813469B001344233B00FA03F27B68F0
:1007CC001B680A431A631BE07B681B68D96A3B6889
:1007DC005A6813469B001344413B1F2202FA03F351
:1007EC00DB4319403B6818683B685A6813469B000A
:1007FC001344413B00FA03F27B681B680A43DA623C
:10080C003B681B68092B1CD97B681B68D9683B6843
:10081C001A6813465B0013441E3B072202FA03F3CB
:10082C00DB4319403B6898683B681A6813465B00C9
:10083C0013441E3B00FA03F27B681B680A43DA6020
:10084C0019E07B681B6819693B681A6813465B00E2
:10085C001344072202FA03F3DB4319403B68986800
:10086C003B681A6813465B00134400FA03F27B687A
:10087C001B680A431A613B681B68102B03D03B684A
:10088C001B68112B32D17B681B681D4A934225D102
:10089C007B681B689B6803F40003002B26D17B68E4
:1008AC001B689A687B681B6842F400029A603B687C
:1008BC001B68102B1AD1134B1B68134AA2FB032382
:1008CC009A0C13469B0013445B00BB6002E0BB68B0
:1008DC00013BBB60BB68002BF9D107E07B689B6ACE
:1008EC0043F020027B689A620123FB737B68002231
:1008FC0083F82420FB7B18461437BD4680BC704718
:10090C0000240140DC00002083DE1B4380B584B052
:10091C0000AF78600023FB600023BB607B681B6822
:10092C009B6803F00103012B39D07B681B689A6824
:10093C007B681B6842F001029A601B4B1B681B4AC8
:10094C00A2FB03239B0CBB6002E0BB68013BBB60BA
:10095C00BB68002BF9D1FFF74BFCF86018E0FFF7F0
:10096C0047FC0246FB68D31A022B11D97B689B6AA1
:10097C0043F010027B689A627B68DB6A43F00102E9
:10098C007B68DA627B68002283F82420012307E06D
:10099C007B681B689B6803F00103012BDFD10023EC
:1009AC0018461037BD4680BDDC00002083DE1B439B
:1009BC0080B584B000AF78600023FB607B681B6857
:1009CC009B6803F00103012B27D17B681B689A6895
:1009DC007B681B6822F001029A60FFF709FCF86043
:1009EC0014E0FFF705FC0246FB68D31A022B0DD965
:1009FC007B689B6A43F010027B689A627B68DB6AB7
:100A0C0043F001027B68DA62012307E07B681B6814
:100A1C009B6803F00103012BE3D000231846103729
:100A2C00BD4680BD80B485B000AF78607B6803F0B4
:100A3C000703FB600C4BDB68BB60BA684FF6FF0327
:100A4C001340BB60FB681A02BB68134343F0BF63DF
:100A5C0043F40033BB60044ABB68D36000BF143757
:100A6C00BD4680BC704700BF00ED00E080B400AF15
:100A7C00044BDB681B0A03F007031846BD4680BC19
:100A8C00704700BF00ED00E080B483B000AF0346B8
:100A9C00FB7197F90730002B0BDBFB7903F01F027E
:100AAC00064997F907305B09012000FA02F241F878
:100ABC00232000BF0C37BD4680BC704700E100E02E
:100ACC0080B483B000AF03463960FB7197F90730EF
:100ADC00002B0ADB3B68DAB20C4997F9073012019C
:100AEC00D2B20B4483F800230AE03B68DAB208491F
:100AFC00FB7903F00F03043B1201D2B20B441A76BC
:100B0C0000BF0C37BD4680BC704700BF00E100E061
:100B1C0000ED00E080B489B000AFF860B9607A6095
:100B2C00FB6803F00703FB61FB69C3F10703042BAC
:100B3C0028BF0423BB61FB690433062B02D9FB6974
:100B4C00033B00E000237B614FF0FF32BB6902FAEC
:100B5C0003F3DA43BB681A407B699A404FF0FF31CC
:100B6C007B6901FA03F3D9437B680B4013431846A6
:100B7C002437BD4680BC704780B582B000AF78602A
:100B8C007B68013BB3F1807F01D301230FE00A4A5C
:100B9C007B68013B53600F214FF0FF30FFF790FF54
:100BAC00054B00229A60044B07221A60002318465A
:100BBC000837BD4680BD00BF10E000E080B582B0B4
:100BCC0000AF78607868FFF72DFF00BF0837BD468F
:100BDC0080BD80B586B000AF0346B9607A60FB7308
:100BEC0000237B61FFF742FF78617A68B968786906
:100BFC00FFF790FF024697F90F3011461846FFF7A2
:100C0C005FFF00BF1837BD4680BD80B582B000AF16
:100C1C000346FB7197F907301846FFF735FF00BF05
:100C2C000837BD4680BD80B582B000AF786078686B
:100C3C00FFF7A2FF034618460837BD4680BD0000EB
:100C4C0080B48BB000AF7860396000237B620023E6
:100C5C003B6227E101227B6A02FA03F3FB613B68EA
:100C6C001B68FA691340BB61BA69FB699A4240F090
:100C7C0016813B685B68122B34D0122B0DD8022BDB
:100C8C002BD0022B04D8002B31D0012B1CD048E0E8
:100C9C00032B43D0112B1BD043E0894A934226D01F
:100CAC00874A934206D8874A934220D0864A934279
:100CBC001DD036E0854A934219D0854A934216D00E
:100CCC00844A934213D02CE03B68DB683B6228E0FB
:100CDC003B68DB6804333B6223E03B68DB6808332A
:100CEC003B621EE03B68DB680C333B6219E03B68FF
:100CFC009B68002B02D104233B6212E03B689B688B
:100D0C00012B05D108233B627B68FA691A6108E064
:100D1C0008233B627B68FA695A6102E000233B625C
:100D2C0000BFBB69FF2B01D87B6801E07B680433F3
:100D3C007B61BB69FF2B02D87B6A9B0002E07B6A5C
:100D4C00083B9B003B617B691A680F213B6901FAE8
:100D5C0003F3DB431A40396A3B6901FA03F31A4384
:100D6C007B691A603B685B6803F08053002B00F0D2
:100D7C009680594B9B69584A43F001039361564B3B
:100D8C009B6903F00103BB60BB68544A7B6A9B08F8
:100D9C00023352F82330FB607B6A03F003039B00A1
:100DAC000F2202FA03F3DB43FA681340FB607B6803
:100DBC004B4A934213D07B684A4A93420DD07B68CE
:100DCC00494A934207D07B68484A934201D1032396
:100DDC0006E0042304E0022302E0012300E00023E8
:100DEC007A6A02F0030292009340FA681343FB60A4
:100DFC003A497B6A9B080233FA6841F823203B6826
:100E0C005B6803F48033002B06D0394B1A683849E1
:100E1C00BB6913430B6006E0354B1A68BB69DB43B7
:100E2C00334913400B603B685B6803F40033002BC1
:100E3C0006D02F4B5A682E49BB6913434B6006E012
:100E4C002B4B5A68BB69DB43294913404B603B6809
:100E5C005B6803F48013002B06D0254B9A68244959
:100E6C00BB6913438B6006E0214B9A68BB69DB437B
:100E7C001F4913408B603B685B6803F40013002B25
:100E8C0006D01B4BDA681A49BB691343CB6006E0EA
:100E9C00174BDA68BB69DB4315491340CB607B6A9F
:100EAC0001337B623B681A687B6A22FA03F3002BDE
:100EBC007FF4D0AE00BF2C37BD4680BC704700BF5E
:100ECC000000211000001110000012100000311061
:100EDC0000003210000022100010024000000140FF
:100EEC0000080140000C01400010014000140140BA
:100EFC000004014080B485B000AF78600B467B8065
:100F0C007B689A687B881340002B02D00123FB730B
:100F1C0001E00023FB73FB7B18461437BD4680BCF5
:100F2C007047F0B58BB006AF78607B68002B01D1B1
:100F3C000123D3E07B6893F82932DBB2002B06D176
:100F4C007B68002283F82822786804F0A9FA7B6871
:100F5C00032283F829227B681B68184601F04FFC9A
:100F6C007B681B683B607E686D4606F110040FCCF5
:100F7C000FC523682B60331D0ECB386801F018FCAD
:100F8C000346002B05D07B68022283F8292201231B
:100F9C00A4E07B681B680021184601F04CFC002380
:100FAC00FB7335E0FB7B7A685B0113442933012228
:100FBC001A70FB7B7A685B0113442833FA7B1A7036
:100FCC00FB7BFA7B91B27A685B01134436330A4699
:100FDC001A80FB7B7A685B0113442B3300221A7056
:100FEC00FB7B7A685B011344383300221A60FB7B6D
:100FFC007A685B0113443C3300221A60FB7B7A68ED
:10100C0002335B01134400221A60FB7B0133FB7338
:10101C00FA7B7B685B689A42C4D30023FB7331E094
:10102C00FB7B7A685B01134403F2291300221A70CC
:10103C00FB7B7A685B01134403F59473FA7B1A709B
:10104C00FB7B7A685B01134403F22B1300221A70AA
:10105C00FB7B7A685B01134403F59C7300221A60D6
:10106C00FB7B7A685B01134403F59E7300221A60C4
:10107C00FB7B7A680A335B01134400221A60FB7B0A
:10108C000133FB73FA7B7B685B689A42C8D37B683D
:10109C001B683B607E686D4606F110040FCC0FC5D3
:1010AC0023682B60331D0ECB386801F0D0FB034650
:1010BC00002B05D07B68022283F8292201230DE046
:1010CC007B68002283F824207B68012283F8292284
:1010DC007B681B68184602F00EFC00231846143778
:1010EC00BD46F0BD80B582B000AF78607B6893F8E8
:1010FC002832012B01D1022316E07B68012283F8F0
:10110C0028220121786804F014FC7B681B681846BF
:10111C0002F0E7FB7B681B68184601F059FB7B6803
:10112C00002283F82822002318460837BD4680BDCC
:10113C0080B582B000AF78607B681B68184602F0FF
:10114C00E4FB034603F40043B3F5004F02D1786887
:10115C0000F0DEFA7B681B68184602F0D6FB0346EB
:10116C0003F48063B3F5806F12D17B681B68B3F80E
:10117C0044309AB27B681B6822F4806292B2A3F866
:10118C004420786804F001FA0021786800F0DEF859
:10119C007B681B68184602F0B8FB034603F48043D7
:1011AC00B3F5804F0BD17B681B68B3F844309AB20F
:1011BC007B681B6822F4804292B2A3F844207B68BF
:1011CC001B68184602F0A1FB034603F40053B3F569
:1011DC00005F0BD17B681B68B3F844309AB27B6814
:1011EC001B6822F4005292B2A3F844207B681B685F
:1011FC00184602F08AFB034603F48053B3F5805F74
:10120C0026D17B681B68B3F840309AB27B681B68A8
:10121C0022F0040292B2A3F840207B681B68B3F85A
:10122C0040309AB27B681B6822F0080292B2A3F895
:10123C004020786804F0E2F97B681B68B3F844300E
:10124C009AB27B681B6822F4805292B2A3F84420B5
:10125C007B681B68184602F058FB034603F40063D6
:10126C00B3F5006F3DD17B681B68B3F840309AB280
:10127C007B681B6842F0080292B2A3F840207B689E
:10128C001B68B3F844309AB27B681B6822F4006286
:10129C0092B2A3F844207B681B68B3F840309AB232
:1012AC007B681B6842F0040292B2A3F840207B6872
:1012BC001B68184602F029FB034603F48053B3F570
:1012CC00805F0BD17B681B68B3F844309AB27B68A3
:1012DC001B6822F4805292B2A3F84420786804F080
:1012EC0073F97B681B68184602F00FFB034603F486
:1012FC000073B3F5007F0ED17B681B68B3F84430E4
:10130C009AB27B681B6822F4007292B2A3F8442054
:10131C00786804F02CF97B681B68184602F0F5FA23
:10132C00034603F48073B3F5807F0BD17B681B6895
:10133C00B3F844309AB27B681B6822F4807292B284
:10134C00A3F8442000BF0837BD4680BD80B582B0ED
:10135C0000AF78600B46FB707B6893F82832012B4A
:10136C0001D1022313E07B68012283F828227B68D9
:10137C00FA7883F824207B681B68FA7811461846A3
:10138C0002F09CFA7B68002283F82822002318467E
:10139C000837BD4680BD80B584B000AF7860084684
:1013AC0011461A460346FB700B463B801346BB7036
:1013BC000023FB7297F90330002B0BDAFB7803F058
:1013CC0007035B0128337A681344FB60FB68012236
:1013DC005A700BE0FB7803F007035B0103F5947381
:1013EC007A681344FB60FB6800225A70FB7803F0A8
:1013FC000703DAB2FB681A703A88FB681A61FB685B
:10140C00BA78DA70FB685B78002B04D0FB681B7829
:10141C009AB2FB68DA81BB78022B02D1FB680022FE
:10142C001A717B6893F82832012B01D102230EE04C
:10143C007B68012283F828227B681B68F9681846B0
:10144C0001F02AFA7B68002283F82822FB7A1846DE
:10145C001037BD4680BD80B584B000AF78600B46B8
:10146C00FB7097F90330002B0BDAFB7803F00703C2
:10147C005B0128337A681344FB60FB6801225A70C5
:10148C000BE0FB7803F007035B0103F594737A68B8
:10149C001344FB60FB6800225A70FB7803F00703CF
:1014AC00DAB2FB681A707B6893F82832012B01D1F1
:1014BC0002230EE07B68012283F828227B681B68DC
:1014CC00F968184601F0D6FC7B68002283F82822C4
:1014DC00002318461037BD4680BD80B586B000AFDE
:1014EC00F8607A603B600B46FB72FB7A03F00703F3
:1014FC005B0103F59473FA6813447B617B697A682A
:10150C005A617B693A689A617B690022DA617B696E
:10151C0000225A70FB7A03F00703DAB27B691A7067
:10152C00FB7A03F00703002B06D1FB681B68796973
:10153C00184601F035FE05E0FB681B687969184612
:10154C0001F02EFE002318461837BD4680BD80B52D
:10155C0086B000AFF8607A603B600B46FB72FB7A9A
:10156C0003F007035B012833FA6813447B617B6942
:10157C007A685A617B693A689A617B690022DA6100
:10158C007B6901225A70FB7A03F00703DAB27B699C
:10159C001A70FB7A03F00703002B06D1FB681B685B
:1015AC007969184601F0FCFD05E0FB681B68796958
:1015BC00184601F0F5FD002318461837BD4680BDCE
:1015CC0080B584B000AF78600B46FB70FB7803F0FD
:1015DC0007027B685B689A4201D9012346E097F9C0
:1015EC000330002B0BDAFB7803F007035B01283385
:1015FC007A681344FB60FB6801225A7009E0FB789F
:10160C005B0103F594737A681344FB60FB6800225A
:10161C005A70FB6801229A70FB7803F00703DAB268
:10162C00FB681A707B6893F82832012B01D10223D6
:10163C001CE07B68012283F828227B681B68F96810
:10164C00184602F065F8FB7803F00703002B08D16D
:10165C007B681A687B6803F50C731946104602F018
:10166C0063F97B68002283F8282200231846103780
:10167C00BD4680BD80B584B000AF78600B46FB7072
:10168C00FB7803F00F027B685B689A4201D9012357
:10169C003AE097F90330002B0BDAFB7803F00703E1
:1016AC005B0128337A681344FB60FB6801225A7093
:1016BC000BE0FB7803F007035B0103F594737A6886
:1016CC001344FB60FB6800225A70FB6800229A707E
:1016DC00FB7803F00703DAB2FB681A707B6893F8A7
:1016EC002832012B01D102230EE07B68012283F802
:1016FC0028227B681B68F968184602F04BF87B6857
:10170C00002283F82822002318461037BD4680BDDE
:10171C0090B589B000AF786082E27B681B68B3F843
:10172C004430FB82FB8ADBB203F00F037B757B7DBD
:10173C00002B40F04281FB8A03F01003002B51D1A7
:10174C007B681B681B889BB223F4E14323F0700376
:10175C009CB27B681A686FEA44436FEA53439BB2AE
:10176C0013807B682833FB607B681B68B3F85030B0
:10177C009BB21A46FB681B78DB00134402335B00F8
:10178C007A681268134403F580631B88C3F309025B
:10179C00FB68DA61FB685A69FB68DB691A44FB6811
:1017AC005A610021786803F0CBFE7B6893F82430F3
:1017BC00DBB2002B00F03482FB689B69002B40F0FD
:1017CC002F827B6893F82430DBB263F07F03DAB2AC
:1017DC007B681B6892B2A3F84C207B68002283F8CC
:1017EC0024201DE27B6803F59473FB607B681B6807
:1017FC001B887B827B8A03F40063002B33D07B68CD
:10180C001B68B3F850309BB21A46FB681B78DB00A0
:10181C00134406335B007A681268134403F5806343
:10182C001B88C3F30902FB68DA617B6818687B6864
:10183C0003F50C71FB68DA88FB68DB699BB202F07C
:10184C00C2F87B681B681B889AB240F68F731340F2
:10185C009CB27B681B6844F0800292B21A80786854
:10186C0003F044FEDCE1B7F91230002B80F2D88192
:10187C007B681B681B889AB240F68F7313409CB22E
:10188C007B681B6844F0800292B21A807B681B68EC
:10189C00B3F850309BB21A46FB681B78DB0013443C
:1018AC0006335B007A681268134403F580631B8867
:1018BC00C3F30902FB68DA61FB68DB69002B19D002
:1018CC00FB685B69002B15D07B681868FB6859694D
:1018DC00FB68DA88FB68DB699BB202F074F8FB6882
:1018EC005A69FB68DB691A44FB685A610021786805
:1018FC0003F00EFE7B681B681C467B681B68B3F804
:10190C0050309BB21C4404F20C431C46FB681B6910
:10191C00002B0ED123889BB223F4F8439BB2238077
:10192C0023889BB26FEA43436FEA53439BB22380F5
:10193C002DE0FB681B693E2B12D8FB681B695B080A
:10194C00BB61FB681B6903F00103002B02D0BB6970
:10195C000133BB61BB699BB29B029BB2238016E037
:10196C00FB681B695B09BB61FB681B6903F01F0308
:10197C00002B02D1BB69013BBB61BB699BB29B02D3
:10198C009BB26FEA43436FEA53439BB223807B685D
:10199C001B681B889BB223F4804323F070039CB21A
:1019AC0084F480539CB284F400539CB27B681A6814
:1019BC00A24B23439BB2138032E17B681B681A460F
:1019CC007B7D9B0013441B887B82B7F91230002B64
:1019DC0080F2D1807B681B681A467B7D9B00134488
:1019EC001B889AB240F68F7313409CB27B681B68BD
:1019FC001A467B7D9B00134444F0800292B21A80FD
:101A0C007B7D5B0103F594737A681344FB60FB6880
:101A1C001B7B002B21D17B681B68B3F850309BB229
:101A2C001A46FB681B78DB00134406335B007A68AC
:101A3C001268134403F580631B88C3F30903FB830B
:101A4C00FB8B002B72D07B681868FB685969FB68AC
:101A5C00DA88FB8B01F0B7FF68E07B681B681A46DD
:101A6C00FB681B789B0013441B889BB203F48043D8
:101A7C00002B21D07B681B68B3F850309BB21A4600
:101A8C00FB681B78DB00134402335B007A68126836
:101A9C00134403F580631B88C3F30903FB83FB8B9F
:101AAC00002B2AD07B681868FB685969FB681A8977
:101ABC00FB8B01F088FF20E07B681B68B3F850308B
:101ACC009BB21A46FB681B78DB00134406335B00A1
:101ADC007A681268134403F580631B88C3F3090307
:101AEC00FB83FB8B002B08D07B681868FB6859695B
:101AFC00FB685A89FB8B01F066FF7B681B681A46F2
:101B0C00FB681B789B0013441B889BB223F4E043B7
:101B1C0023F070039CB27B681B681A46FB681B7829
:101B2C009B001A44464B23439BB21380FB68DA6933
:101B3C00FB8B1A44FB68DA61FB685A69FB8B1A440D
:101B4C00FB685A61FB689B69002B04D0FA8BFB681D
:101B5C001B699A4206D2FB681B781946786803F019
:101B6C00D7FC08E0FB681978FB685A69FB689B692D
:101B7C007868FFF7B2FC7B8A03F08003002B4FD010
:101B8C007B7D5B0128337A681344FB607B681B68A0
:101B9C001A467B7D9B0013441B889BB223F4E143C4
:101BAC0023F070039CB27B681B681A467B7D9B00FC
:101BBC001A446FEA44436FEA53439BB213807B6829
:101BCC001B68B3F850309BB21A46FB681B78DB00DD
:101BDC00134402335B007A681268134403F5806384
:101BEC001B88C3F30902FB68DA61FB685A69FB685E
:101BFC00DB691A44FB685A61FB689B69002B06D1B0
:101C0C00FB681B781946786803F09AFC08E0FB68BF
:101C1C001978FB685A69FB689B697868FFF797FC31
:101C2C007B681B68B3F844309BB21BB2002BFFF6E9
:101C3C0074AD002318462437BD4690BD8080FFFF4D
:101C4C00C080FFFF80B487B000AFF8607B600B46AC
:101C5C007B8113463B817B8903F080039BB2002B75
:101C6C0008D07B8903F007035B012833FA6813441F
:101C7C007B6106E07B895B0103F59473FA6813447E
:101C8C007B613B89002B07D17B6900221A737B682F
:101C9C009AB27B69DA800BE07B6901221A737B684C
:101CAC009AB27B691A817B681B0C9AB27B695A8148
:101CBC00002318461C37BD4680BC704780B586B0E3
:101CCC0000AF78607B68002B01D101236CE27B684C
:101CDC001B6803F00103002B00F08780924B5B68BC
:101CEC0003F00C03042B0CD08F4B5B6803F00C033C
:101CFC00082B12D18C4B5B6803F48033B3F5803F17
:101D0C000BD1894B1B6803F40033002B6CD07B6820
:101D1C005B68002B68D1012346E27B685B68B3F5F6
:101D2C00803F06D1804B1B687F4A43F4803313609D
:101D3C002EE07B685B68002B0CD17B4B1B687A4ACE
:101D4C0023F480331360784B1B68774A23F4802389
:101D5C0013601DE07B685B68B3F5A02F0CD1724B50
:101D6C001B68714A43F4802313606F4B1B686E4AE7
:101D7C0043F4803313600BE06B4B1B686A4A23F40B
:101D8C0080331360684B1B68674A23F4802313600D
:101D9C007B685B68002B13D0FEF72AFA386108E0E9
:101DAC00FEF726FA02463B69D31A642B01D90323AA
:101DBC00FAE15D4B1B6803F40033002BF0D014E008
:101DCC00FEF716FA386108E0FEF712FA02463B6994
:101DDC00D31A642B01D90323E6E1534B1B6803F49C
:101DEC000033002BF0D100E000BF7B681B6803F0D0
:101DFC000203002B63D04C4B5B6803F00C03002BED
:101E0C000BD0494B5B6803F00C03082B1CD1464BE1
:101E1C005B6803F48033002B16D1434B1B6803F033
:101E2C000203002B05D07B681B69012B01D0012319
:101E3C00BAE13D4B1B6823F0F8027B685B69DB0061
:101E4C00394913430B603AE07B681B69002B20D0A7
:101E5C00364B01221A60FEF7CBF9386108E0FEF729
:101E6C00C7F902463B69D31A022B01D903239BE124
:101E7C002D4B1B6803F00203002BF0D02A4B1B6880
:101E8C0023F0F8027B685B69DB00274913430B6086
:101E9C0015E0264B00221A60FEF7AAF9386108E01B
:101EAC00FEF7A6F902463B69D31A022B01D903238C
:101EBC007AE11D4B1B6803F00203002BF0D17B6809
:101ECC001B6803F00803002B3AD07B689B69002B3E
:101EDC0019D0174B01221A60FEF78AF9386108E015
:101EEC00FEF786F902463B69D31A022B01D903236C
:101EFC005AE10D4B5B6A03F00203002BF0D001207A
:101F0C0000F0C6FA1CE00A4B00221A60FEF770F9CA
:101F1C0038610FE0FEF76CF902463B69D31A022BCD
:101F2C0008D9032340E100BF0010024000004242E8
:101F3C00800442429E4B5B6A03F00203002BE9D102
:101F4C007B681B6803F00403002B00F0A6800023C1
:101F5C00FB75974BDB6903F08053002B0DD1944B31
:101F6C00DB69934A43F08053D361914BDB6903F0F7
:101F7C008053BB60BB680123FB758E4B1B6803F45D
:101F8C008073002B18D18B4B1B688A4A43F48073E7
:101F9C001360FEF72DF9386108E0FEF729F90246C7
:101FAC003B69D31A642B01D90323FDE0814B1B68D9
:101FBC0003F48073002BF0D07B68DB68012B06D117
:101FCC007B4B1B6A7A4A43F0010313622DE07B685A
:101FDC00DB68002B0CD1764B1B6A754A23F001038E
:101FEC001362734B1B6A724A23F0040313621CE0E6
:101FFC007B68DB68052B0CD16D4B1B6A6C4A43F07C
:10200C00040313626A4B1B6A694A43F001031362AF
:10201C000BE0674B1B6A664A23F001031362644BA7
:10202C001B6A634A23F0040313627B68DB68002B92
:10203C0015D0FEF7DDF838610AE0FEF7D9F8024654
:10204C003B69D31A41F28832934201D90323ABE0A6
:10205C00574B1B6A03F00203002BEED014E0FEF783
:10206C00C7F838610AE0FEF7C3F802463B69D31A99
:10207C0041F28832934201D9032395E04C4B1B6A01
:10208C0003F00203002BEED1FB7D012B05D1484B55
:10209C00DB69474A23F08053D3617B68DB69002BF3
:1020AC0000F08180424B5B6803F00C03082B61D07D
:1020BC007B68DB69022B46D13F4B00221A60FEF78E
:1020CC0097F8386108E0FEF793F802463B69D31A9B
:1020DC00022B01D9032367E0354B1B6803F0007317
:1020EC00002BF0D17B681B6AB3F5803F08D1304BD5
:1020FC005B6823F400327B689B682D4913434B606B
:10210C002B4B5B6823F474127B68196A7B685B6ADF
:10211C000B43274913434B60274B01221A60FEF7F0
:10212C0067F8386108E0FEF763F802463B69D31A9A
:10213C00022B01D9032337E01D4B1B6803F00073FE
:10214C00002BF0D02FE01C4B00221A60FEF750F849
:10215C00386108E0FEF74CF802463B69D31A022BB3
:10216C0001D9032320E0124B1B6803F00073002BF2
:10217C00F0D118E07B68DB69012B01D1012313E05E
:10218C000B4B5B68FB60FB6803F480327B681B6A5B
:10219C009A4206D1FB6803F470127B685B6A9A4220
:1021AC0001D0012300E0002318461837BD4680BD3E
:1021BC0000100240007000406000424280B584B0C4
:1021CC0000AF786039607B68002B01D10123D0E02F
:1021DC006A4B1B6803F007033A689A4210D9674BA5
:1021EC001B6823F0070265493B6813430B60634B84
:1021FC001B6803F007033A689A4201D00123B8E048
:10220C007B681B6803F00203002B20D07B681B68E3
:10221C0003F00403002B05D0594B5B68584A43F478
:10222C00E06353607B681B6803F00803002B05D048
:10223C00534B5B68524A43F460535360504B5B689A
:10224C0023F0F0027B689B684D4913434B607B681D
:10225C001B6803F00103002B40D07B685B68012BEB
:10226C0007D1474B1B6803F40033002B15D1012316
:10227C007FE07B685B68022B07D1414B1B6803F046
:10228C000073002B09D1012373E03D4B1B6803F055
:10229C000203002B01D101236BE0394B5B6823F067
:1022AC0003027B685B68364913434B60FDF7A0FF64
:1022BC00F8600AE0FDF79CFF0246FB68D31A41F276
:1022CC008832934201D9032353E02D4B5B6803F012
:1022DC000C027B685B689B009A42EBD1274B1B6816
:1022EC0003F007033A689A4210D2244B1B6823F080
:1022FC00070222493B6813430B60204B1B6803F019
:10230C0007033A689A4201D0012332E07B681B68CC
:10231C0003F00403002B08D0194B5B6823F4E06234
:10232C007B68DB68164913434B607B681B6803F0C2
:10233C000803002B09D0124B5B6823F460527B68B6
:10234C001B69DB000E4913434B6000F021F801467A
:10235C000B4B5B681B0903F00F030A4AD35C21FA91
:10236C0003F3094A1360094B1B681846FDF7FEFE80
:10237C00002318461037BD4680BD00BF0020024028
:10238C00001002403C5F0008DC0000200000002030
:10239C0090B48AB000AF2A4B3C1D0FCB84E80F00E1
:1023AC00284B1B883B800023FB610023BB6100236F
:1023BC007B6200237B6100233B62234B5B68FB61E8
:1023CC00FB6903F00C03042B02D0082B03D02DE087
:1023DC001E4B3B622DE0FB699B0C03F00F0307F1D6
:1023EC002802134413F8243C7B61FB6903F480330B
:1023FC00002B13D0144B5B685B0C03F0010307F14B
:10240C002802134413F8283CBB617B690F4A02FB7A
:10241C0003F2BB69B2FBF3F37B6204E07B690C4A09
:10242C0002FB03F37B627B6A3B6202E0074B3B627D
:10243C0000BF3B6A18462837BD4690BC704700BFAA
:10244C00AC5E0008BC5E00080010024000127A006E
:10245C0000093D0080B400AF024B1B681846BD4616
:10246C0080BC7047DC00002080B500AFFFF7F2FFA6
:10247C000146054B5B68DB0A03F00703034AD35C98
:10248C0021FA03F3184680BD001002404C5F00088F
:10249C0080B485B000AF78600A4B1B680A4AA2FB77
:1024AC0003235B0A7A6802FB03F3FB6000BFFB6843
:1024BC005A1EFA60002BF9D100BF1437BD4680BC00
:1024CC00704700BFDC000020D34D621080B586B091
:1024DC0000AF786000233B610023FB607B681B68C6
:1024EC0003F00103002B7DD00023FB754F4BDB6900
:1024FC0003F08053002B0DD14C4BDB694B4A43F05E
:10250C008053D361494BDB6903F08053BB60BB68DC
:10251C000123FB75464B1B6803F48073002B18D109
:10252C00434B1B68424A43F480731360FDF760FE13
:10253C00386108E0FDF75CFE02463B69D31A642B58
:10254C0001D903236DE03A4B1B6803F48073002B15
:10255C00F0D0364B1B6A03F44073FB60FB68002B16
:10256C002ED07B685B6803F44073FA689A4227D0DC
:10257C002E4B1B6A23F44073FB602E4B01221A6016
:10258C002C4B00221A60294AFB681362FB6803F08B
:10259C000103002B14D0FDF72BFE38610AE0FDF788
:1025AC0027FE02463B69D31A41F28832934201D985
:1025BC00032336E01D4B1B6A03F00203002BEED005
:1025CC001A4B1B6A23F440727B685B6817491343F0
:1025DC000B62FB7D012B05D1144BDB69134A23F0F5
:1025EC008053D3617B681B6803F00203002B08D077
:1025FC000E4B5B6823F440427B689B680B4913438A
:10260C004B607B681B6803F01003002B08D0074B52
:10261C005B6823F480027B68DB68044913434B60DE
:10262C00002318461837BD4680BD00BF001002407D
:10263C00007000404004424290B58DB000AF78600D
:10264C00554B07F10C040FCB84E80F00534B1B8840
:10265C003B8100237B620023FB6200233B6200234F
:10266C00FB610023BB627B68022B7FD0102B02D056
:10267C00012B48D08BE04A4B5B68FB61484B1B68D5
:10268C0003F08073002B7FD0FB699B0C03F00F03CE
:10269C0007F13002134413F8243C3B62FB6903F44A
:1026AC008033002B18D03E4B5B685B0C03F00103AE
:1026BC0007F13002134413F8283C7B62FB6903F4E6
:1026CC008033002B0DD0374A7B6AB2FBF3F23B6AA6
:1026DC0002FB03F3FB6204E03B6A334A02FB03F3A5
:1026EC00FB622F4B5B6803F48003B3F5800F02D1C0
:1026FC00FB6ABB6248E0FB6A5B002C4AA2FB03232B
:10270C005B08BB6240E0264B1B6AFB61FB6903F470
:10271C004073B3F5807F08D1FB6903F00203002BF3
:10272C0003D04FF40043BB621FE0FB6903F440731A
:10273C00B3F5007F09D11A4B5B6A03F00203002B3F
:10274C0003D049F64043BB620FE0FB6903F44073CE
:10275C00B3F5407F1AD1124B1B6803F40033002BE6
:10276C0014D04FF22443BB6210E00FE0FFF77CFE65
:10277C0002460B4B5B689B0B03F0030301335B00BE
:10278C00B2FBF3F3BB6202E000BF00E000BFBB6A28
:10279C0018463437BD4690BDC05E0008D05E0008B8
:1027AC000010024000127A0000093D00ABAAAAAA50
:1027BC0084B080B483B000AF786007F1140080E877
:1027CC000E00002318460C37BD4680BC04B0704781
:1027DC0080B485B000AF78604FF43F43FB817B68D9
:1027EC00B3F840309AB2FB8913439AB27B68A3F8D2
:1027FC004020002318461437BD4680BC704780B477
:10280C0085B000AF78604FF43F43FB817B68B3F831
:10281C0040309BB21AB2B7F90E30DB431BB21340F7
:10282C001BB29AB27B68A3F84020002318461437D9
:10283C00BD4680BC704780B483B000AF78600B4657
:10284C00FB70002318460C37BD4680BC704784B023
:10285C0080B582B000AF786007F1140080E80E00FC
:10286C007B680122A3F840207B680022A3F840205B
:10287C007B680022A3F844207B680022A3F8502038
:10288C007868FFF7A5FF002318460837BD46BDE85A
:10289C00804004B07047000090B484B000AF786002
:1028AC0039600023FB737A683B681B789B001344E8
:1028BC001B889BB223F4EC4323F07003BB813B6871
:1028CC00DB78032B19D801A252F823F0E928000871
:1028DC00FD2800080D290008F3280008BB8943F4E3
:1028EC000073BB810DE0BB8943F4C063BB8108E07E
:1028FC00BB8943F48063BB8103E00123FB7300E0DD
:10290C0000BF7A683B681B789B001A44BB8943F074
:10291C007F4343F47F0343F4004343F080039BB2B3
:10292C0013807A683B681B789B0013441B889BB20E
:10293C0023F4E04323F070039AB23B681B789BB2FC
:10294C0013439CB27A683B681B789B001A448A4BF1
:10295C0023439BB213803B681B7B002B40F01281FE
:10296C003B685B78002B67D07C687B68B3F8503091
:10297C009BB21C443B681B781B01234403F580630A
:10298C001C463B68DB885B089BB25B009BB22380D8
:10299C007A683B681B789B0013441B889CB22346C7
:1029AC0003F04003002B14D07A683B681B789B0023
:1029BC0013441B889BB223F4E04323F070039CB2B6
:1029CC007A683B681B789B001A446C4B23439BB280
:1029DC0013803B68DB78012B18D07A683B681B7836
:1029EC009B0013441B889BB223F4E04323F0400369
:1029FC009CB284F020039CB27A683B681B789B00E5
:102A0C001A445D4B23439BB213802BE27A683B68DC
:102A1C001B789B0013441B889BB223F4E04323F0E8
:102A2C0040039CB27A683B681B789B001A44524B5B
:102A3C0023439BB2138015E27C687B68B3F850305B
:102A4C009BB21C443B681B781B01234403F5816338
:102A5C001C463B68DB885B089BB25B009BB2238007
:102A6C007C687B68B3F850309BB21C443B681B7885
:102A7C001B01234403F20C431C463B681B69002BCF
:102A8C000ED123889BB223F4F8439BB22380238876
:102A9C009BB26FEA43436FEA53439BB223802DE012
:102AAC003B681B693E2B12D83B681B695B08BB60FB
:102ABC003B681B6903F00103002B02D0BB68013398
:102ACC00BB60BB689BB29B029BB2238016E03B6849
:102ADC001B695B09BB603B681B6903F01F03002B80
:102AEC0002D1BB68013BBB60BB689BB29B029BB233
:102AFC006FEA43436FEA53439BB223807A683B6887
:102B0C001B789B0013441B889CB2234603F4804320
:102B1C00002B14D07A683B681B789B0013441B88ED
:102B2C009BB223F4E04323F070039CB27A683B68B9
:102B3C001B789B001A44124B23439BB213807A6878
:102B4C003B681B789B0013441B889BB223F4804387
:102B5C0023F070039CB284F480539CB284F4005331
:102B6C009CB27A683B681B789B001A44024B234347
:102B7C009BB2138076E100BF8080FFFFC080FFFF17
:102B8C0080C0FFFF7A683B681B789B0013441B884E
:102B9C009BB223F4E04323F070039CB27A683B6849
:102BAC001B789B001A44964B23439BB213807C6882
:102BBC007B68B3F850309BB21C443B681B781B01FC
:102BCC00234403F580631C463B681B895B089BB25E
:102BDC005B009BB223807C687B68B3F850309BB25F
:102BEC001C443B681B781B01234403F581631C4682
:102BFC003B685B895B089BB25B009BB223803B68A4
:102C0C005B78002B40F088807A683B681B789B00CF
:102C1C0013441B889CB2234603F48043002B14D02E
:102C2C007A683B681B789B0013441B889BB223F487
:102C3C00E04323F070039CB27A683B681B789B00DE
:102C4C001A44704B23439BB213807A683B681B7801
:102C5C009B0013441B889CB2234603F04003002BBB
:102C6C0014D07A683B681B789B0013441B889BB27A
:102C7C0023F4E04323F070039CB27A683B681B7822
:102C8C009B001A44604B23439BB213807A683B68C9
:102C9C001B789B0013441B889BB223F4E04323F066
:102CAC0070039CB27A683B681B789B001A44564BA5
:102CBC0023439BB213807A683B681B789B001344B8
:102CCC001B889BB223F4804323F070039CB284F4E2
:102CDC0080539CB284F400539CB27A683B681B7896
:102CEC009B001A44494B23439BB213807A683B6880
:102CFC001B789B0013441B889BB223F4E04323F006
:102D0C0040039CB27A683B681B789B001A443F4B8B
:102D1C0023439BB21380A5E07A683B681B789B0029
:102D2C0013441B889CB2234603F48043002B14D01D
:102D3C007A683B681B789B0013441B889BB223F476
:102D4C00E04323F070039CB27A683B681B789B00CD
:102D5C001A442C4B23439BB213807A683B681B7834
:102D6C009B0013441B889CB2234603F04003002BAA
:102D7C0014D07A683B681B789B0013441B889BB269
:102D8C0023F4E04323F070039CB27A683B681B7811
:102D9C009B001A441C4B23439BB213807A683B68FC
:102DAC001B789B0013441B889BB223F4E04323F055
:102DBC0070039CB27A683B681B789B001A44114BD9
:102DCC0023439BB213803B68DB78012B20D07A68BD
:102DDC003B681B789B0013441B889BB223F4E04395
:102DEC0023F040039CB284F020039CB27A683B68C9
:102DFC001B789B001A44054B23439BB213801CE0A9
:102E0C008081FFFF80C0FFFFC080FFFF8080FFFF3D
:102E1C007A683B681B789B0013441B889BB223F495
:102E2C00E04323F040039CB27A683B681B789B001C
:102E3C001A440F4B23439BB213807A683B681B7870
:102E4C009B0013441B889BB223F4804323F0700334
:102E5C009CB27A683B681B789B001A44044B234352
:102E6C009BB21380FB7B18461037BD4690BC704755
:102E7C008080FFFF90B482B000AF786039603B680F
:102E8C001B7B002B71D13B685B78002B36D07A68AA
:102E9C003B681B789B0013441B889CB2234603F0B1
:102EAC004003002B14D07A683B681B789B001344BA
:102EBC001B889BB223F4E04323F070039CB27A6826
:102ECC003B681B789B001A446B4B23439BB21380CB
:102EDC007A683B681B789B0013441B889BB223F4D5
:102EEC00E04323F040039CB27A683B681B789B005C
:102EFC001A44624B23439BB2138044E17A683B68CB
:102F0C001B789B0013441B889CB2234603F480431C
:102F1C00002B14D07A683B681B789B0013441B88E9
:102F2C009BB223F4E04323F070039CB27A683B68B5
:102F3C001B789B001A44524B23439BB213807A6834
:102F4C003B681B789B0013441B889BB223F4804383
:102F5C0023F070039CB27A683B681B789B001A4480
:102F6C00464B23439BB213800DE13B685B78002BEF
:102F7C0040F088807A683B681B789B0013441B8860
:102F8C009CB2234603F48043002B14D07A683B6830
:102F9C001B789B0013441B889BB223F4E04323F063
:102FAC0070039CB27A683B681B789B001A44344BC4
:102FBC0023439BB213807A683B681B789B001344B5
:102FCC001B889CB2234603F04003002B14D07A6874
:102FDC003B681B789B0013441B889BB223F4E04393
:102FEC0023F070039CB27A683B681B789B001A44F0
:102FFC00214B23439BB213807A683B681B789B0060
:10300C0013441B889BB223F4E04323F070039CB25F
:10301C007A683B681B789B001A44174B23439BB27E
:10302C0013807A683B681B789B0013441B889BB207
:10303C0023F4804323F070039CB27A683B681B78BE
:10304C009B001A440D4B23439BB213807A683B6858
:10305C001B789B0013441B889BB223F4E04323F0A2
:10306C0040039CB27A683B681B789B001A44034B64
:10307C0023439BB2138086E0C080FFFF8080FFFF5C
:10308C0080C0FFFF7A683B681B789B0013441B8849
:10309C009CB2234603F48043002B14D07A683B681F
:1030AC001B789B0013441B889BB223F4E04323F052
:1030BC0070039CB27A683B681B789B001A44354BB2
:1030CC0023439BB213807A683B681B789B001344A4
:1030DC001B889CB2234603F04003002B14D07A6863
:1030EC003B681B789B0013441B889BB223F4E04382
:1030FC0023F070039CB27A683B681B789B001A44DF
:10310C00254B23439BB213807A683B681B789B004A
:10311C0013441B889BB223F4E04323F070039CB24E
:10312C007A683B681B789B001A441A4B23439BB26A
:10313C0013807A683B681B789B0013441B889BB2F6
:10314C0023F4E04323F040039CB27A683B681B787D
:10315C009B001A44114B23439BB213807A683B6843
:10316C001B789B0013441B889BB223F4804323F0F1
:10317C0070039CB27A683B681B789B001A44074B1F
:10318C0023439BB21380002318460837BD4690BCDE
:10319C00704700BF80C0FFFFC080FFFF8080FFFF33
:1031AC0090B58DB000AF786039603B685B78012BCF
:1031BC0040F060813B689A693B681B699A4209D967
:1031CC003B681B69BB623B689A69BB6AD21A3B6855
:1031DC009A6105E03B689B69BB623B6800229A617F
:1031EC003B681B7B002B19D13B6859693B68DA881B
:1031FC00BB6A9BB2786800F0A2FB7C687B68B3F872
:10320C0050309BB21C443B681B781B01234403F2D7
:10321C0004431C46BB6A9BB223800FE17A683B686F
:10322C001B789B0013441B889BB203F04003002BBC
:10323C0065D07C683B685B78002B48D17C687B68E8
:10324C00B3F850309BB21C443B681B781B012344E1
:10325C0003F20C431C46BB6A002B0ED123889BB295
:10326C0023F4F8439BB2238023889BB26FEA434339
:10327C006FEA53439BB223803DE0BB6A3E2B10D8D0
:10328C00BB6A5B087B62BB6A03F00103002B02D0B4
:10329C007B6A01337B627B6A9BB29B029BB223806D
:1032AC0029E0BB6A5B097B62BB6A03F01F03002B3E
:1032BC0002D17B6A013B7B627B6A9BB29B029BB215
:1032CC006FEA43436FEA53439BB2238013E03B689E
:1032DC005B78012B0FD17B68B3F850309BB21C4448
:1032EC003B681B781B01234403F20C43FB60BB6A55
:1032FC009AB2FB681A803B685B89FB8563E03B688C
:10330C005B78002B48D17C687B68B3F850309BB25B
:10331C001C443B681B781B01234403F204431C46EA
:10332C00BB6A002B0ED123889BB223F4F8439BB2CB
:10333C00238023889BB26FEA43436FEA53439BB2CB
:10334C0023803DE0BB6A3E2B10D8BB6A5B083B6216
:10335C00BB6A03F00103002B02D03B6A01333B62D2
:10336C003B6A9BB29B029BB2238029E0BB6A5B0940
:10337C003B62BB6A03F01F03002B02D13B6A013B8B
:10338C003B623B6A9BB29B029BB26FEA43436FEA80
:10339C0053439BB2238013E03B685B78012B0FD126
:1033AC007C687B68B3F850309BB21C443B681B783C
:1033BC001B01234403F204431C46BB6A9BB22380CB
:1033CC003B681B89FB853B685969BB6A9BB2FA8DCC
:1033DC00786800F0B4FA3B685B78002B15D17A68FA
:1033EC003B681B789B0013441B889BB223F4E0437F
:1033FC0023F070039CB27A683B681B789B001A44DC
:10340C009A4B23439BB2138018E03B685B78012BEB
:10341C0014D17A683B681B789B0013441B889BB2C1
:10342C0023F4E04323F070039CB27A683B681B786A
:10343C009B001A448E4B23439BB213807A683B68E3
:10344C001B789B0013441B889BB223F4E04323F0AE
:10345C0040039CB284F010039CB284F020039CB215
:10346C007A683B681B789B001A44824B23439BB2BF
:10347C00138046E13B689A693B681B699A4209D9FB
:10348C003B681B69BB623B689A69BB6AD21A3B6892
:10349C009A6105E03B689B69BB623B6800229A61BC
:1034AC003B681B7B002B48D17C687B68B3F85030A1
:1034BC009BB21C443B681B781B01234403F20C4356
:1034CC001C46BB6A002B0ED123889BB223F4F84315
:1034DC009BB2238023889BB26FEA43436FEA53432A
:1034EC009BB22380F2E0BB6A3E2B10D8BB6A5B0810
:1034FC00FB61BB6A03F00103002B02D0FB690133B3
:10350C00FB61FB699BB29B029BB22380DEE0BB6A32
:10351C005B09FB61BB6A03F01F03002B02D1FB6943
:10352C00013BFB61FB699BB29B029BB26FEA43437D
:10353C006FEA53439BB22380C8E03B685B78002B57
:10354C0048D17C687B68B3F850309BB21C443B6814
:10355C001B781B01234403F204431C46BB6A002B5B
:10356C000ED123889BB223F4F8439BB2238023888B
:10357C009BB26FEA43436FEA53439BB223803DE017
:10358C00BB6A3E2B10D8BB6A5B08BB61BB6A03F0FD
:10359C000103002B02D0BB690133BB61BB699BB239
:1035AC009B029BB2238029E0BB6A5B09BB61BB6AAF
:1035BC0003F01F03002B02D1BB69013BBB61BB694C
:1035CC009BB29B029BB26FEA43436FEA53439BB29D
:1035DC00238013E03B685B78012B0FD17C687B6800
:1035EC00B3F850309BB21C443B681B781B0123443E
:1035FC0003F204431C46BB6A9BB223807C683B6885
:10360C005B78002B4ED17C687B68B3F850309BB252
:10361C001C443B681B781B01234403F20C431C46DF
:10362C00BB6A002B0ED123889BB223F4F8439BB2C8
:10363C00238023889BB26FEA43436FEA53439BB2C8
:10364C00238043E0BB6A3E2B16D8BB6A5B087B61C8
:10365C00BB6A03F00103002B02D07B6901337B6151
:10366C007B699BB29B029BB223802FE0C080FFFF43
:10367C0080C0FFFF8080FFFFBB6A5B097B61BB6A78
:10368C0003F01F03002B02D17B69013B7B617B693B
:10369C009BB29B029BB26FEA43436FEA53439BB2CC
:1036AC00238013E03B685B78012B0FD17B68B3F868
:1036BC0050309BB21C443B681B781B01234403F223
:1036CC000C433B61BB6A9AB23B691A807A683B68CF
:1036DC001B789B0013441B889BB223F4804323F07C
:1036EC0070039CB284F480539CB284F400539CB25B
:1036FC007A683B681B789B001A44044B23439BB2AB
:10370C001380002318463437BD4690BD8080FFFFE0
:10371C0090B482B000AF786039603B685B78002B66
:10372C0018D07A683B681B789B0013441B889BB2AB
:10373C0023F4E04323F040039CB284F010039CB2CA
:10374C007A683B681B789B001A44114B23439BB24D
:10375C00138017E07A683B681B789B0013441B8826
:10376C009BB223F4804323F070039CB284F4805307
:10377C009CB27A683B681B789B001A44044B234329
:10378C009BB21380002318460837BD4690BC704787
:10379C008080FFFF90B482B000AF786039603B68E6
:1037AC001B7B002B7DD13B685B78002B3DD07A686E
:1037BC003B681B789B0013441B889CB2234603F088
:1037CC004003002B14D07A683B681B789B00134491
:1037DC001B889BB223F4E04323F070039CB27A68FD
:1037EC003B681B789B001A44314B23439BB21380DC
:1037FC003B68DB78012B54D07A683B681B789B00C4
:10380C0013441B889BB223F4E04323F040039CB287
:10381C0084F020039CB27A683B681B789B001A44A6
:10382C00244B23439BB213803BE07A683B681B78A4
:10383C009B0013441B889CB2234603F48043002B4B
:10384C0014D07A683B681B789B0013441B889BB28E
:10385C0023F4E04323F070039CB27A683B681B7836
:10386C009B001A44144B23439BB213807A683B6829
:10387C001B789B0013441B889BB223F4804323F0DA
:10388C0070039CB284F480539CB284F400539CB2B9
:10389C007A683B681B789B001A44064B23439BB207
:1038AC001380002318460837BD4690BC704700BFF4
:1038BC00C080FFFF8080FFFF80C0FFFF80B483B01B
:1038CC0000AF78600B46FB70FB78002B03D17B6854
:1038DC008022A3F84C20002318460C37BD4680BC30
:1038EC00704780B483B000AF7860002318460C3763
:1038FC00BD4680BC704780B483B000AF78600023B5
:10390C0018460C37BD4680BC704780B485B000AFFC
:10391C0078607B68B3F844309BB2FB60FB68184658
:10392C001437BD4680BC704780B483B000AF78605C
:10393C003960002318460C37BD4680BC704780B4F4
:10394C008DB000AFF860B96011461A460B46FB808B
:10395C001346BB80BB8801335B083B62FB68FB6191
:10396C00BB687B62FB885A00FB69134403F58063D8
:10397C00BB623B6AFB621EE07B6A1B78BB617B6AA5
:10398C0001337B627B6A1B789BB21B029BB21A468B
:10399C00BB6913437B617B699AB2BB6A1A80BB6AB1
:1039AC000233BB62BB6A0233BB627B6A01337B624C
:1039BC00FB6A013BFB62FB6A002BDDD100BF343795
:1039CC00BD4680BC704780B48BB000AFF860B96066
:1039DC0011461A460B46FB801346BB80BB885B081E
:1039EC009BB2BB61FB687B61BB68FB61FB885A00C7
:1039FC007B69134403F580633B62BB697B621BE00C
:103A0C003B6A1B889BB23B613B6A02333B623B695E
:103A1C00DAB2FB691A70FB690133FB613B691B0A63
:103A2C00DAB2FB691A70FB690133FB613B6A023342
:103A3C003B627B6A013B7B627B6A002BE0D1BB88DB
:103A4C0003F001039BB2002B07D03B6A1B889BB28F
:103A5C003B613B69DAB2FB691A7000BF2C37BD467B
:103A6C0080BC704780B584B000AF78600B46FB70AB
:103A7C000023FB73022303228121786801F037FEB7
:103A8C007B680122DA62022303220121786801F0AB
:103A9C002EFE7B680122C3F86C21182001F034FF44
:103AAC0002467B68C3F8B8227B68D3F8B832002B87
:103ABC0002D10123FB7311E07B68D3F8B832BB60F1
:103ACC00BB6800221A757B68D3F8BC325B689847D8
:103ADC00BA6802230121786801F0F3FEFB7B1846DB
:103AEC001037BD4680BD80B582B000AF78600B4604
:103AFC00FB708121786801F020FE7B680022DA627D
:103B0C000121786801F019FE7B680022C3F86C2152
:103B1C007B68D3F8B832002B0ED07B68D3F8BC325C
:103B2C009B6898477B68D3F8B832184601F0F8FECA
:103B3C007B680022C3F8B822002318460837BD461C
:103B4C0080BD000080B588B000AF786039607B68BC
:103B5C00D3F8B8323B610023FB830023BB61002305
:103B6C00FB810023FB753B681B7803F06003002B83
:103B7C0051D0202B40F0D8803B685B78023B092B5E
:103B8C0041D801A252F823F0ED3B0008CB3B0008D2
:103B9C00133C0008133C0008133C0008133C0008BD
:103BAC00133C0008FD3B0008DB3B0008BD3B000854
:103BBC003B685B88DBB21A463B695A602AE03B697A
:103BCC00043301221946786801F08EF922E03B6833
:103BDC005B881B0A9BB2DBB21A463B699A6019E000
:103BEC003B69083301221946786801F07DF911E030
:103BFC003B6901221A6139693B68DB881A4678688F
:103C0C0001F0A0F906E03968786801F003F90223A5
:103C1C00FB7500BF8FE03B685B780B2B7CD801A257
:103C2C0052F823F0613C0008253D0008253D0008B2
:103C3C00253D0008253D0008253D0008893C00086D
:103C4C00253D0008253D0008253D0008D73C00080F
:103C5C00FF3C00087B6893F89C32032B07D107F1DB
:103C6C000E0302221946786801F03EF95BE03968D0
:103C7C00786801F0CFF80223FB7554E03B685B8851
:103C8C001B0A9BB2222B0BD13B68DB88292B28BF4C
:103C9C002923FB837B68D3F8BC321B68BB610DE026
:103CAC003B685B881B0A9BB2212B07D1244BBB6161
:103CBC003B68DB88092B28BF0923FB83FB8B1A4647
:103CCC00B969786801F010F92DE07B6893F89C32A3
:103CDC00032B07D13B690C3301221946786801F09C
:103CEC0003F920E03968786801F094F80223FB7539
:103CFC0019E07B6893F89C32032B06D13B685B88F8
:103D0C00DBB21A463B69DA600DE03968786801F07D
:103D1C0081F80223FB7506E03968786801F07AF8BF
:103D2C000223FB7500BF06E03968786801F072F871
:103D3C000223FB7500BFFB7D18462037BD4680BDB6
:103D4C00C400002080B586B000AFF860B96013469F
:103D5C00FB80FB68D3F8B8327B61FB6893F89C322C
:103D6C00032B0FD17B691B7D002B09D17B690122B1
:103D7C001A75FB88BA688121F86801F07FFD01E0B3
:103D8C00012300E0002318461837BD4680BD000013
:103D9C0080B483B000AF78607B6829221A80034B13
:103DAC0018460C37BD4680BC704700BF4000002051
:103DBC0080B483B000AF78607B6829221A80034BF3
:103DCC0018460C37BD4680BC704700BF6C00002005
:103DDC0080B483B000AF78607B6829221A80034BD3
:103DEC0018460C37BD4680BC704700BF98000020B9
:103DFC0080B483B000AF78600B46FB707B68D3F85F
:103E0C00B83200221A75002318460C37BD4680BC08
:103E1C00704780B584B000AF78600B46FB707B6850
:103E2C00D3F8B832FB607B68D3F8BC32DB68FA6835
:103E3C001078FA68527811469847FA6802230121E3
:103E4C00786801F03EFD002318461037BD4680BD52
:103E5C0080B584B000AF78607B68D3F8B832FB6073
:103E6C00FB681B69012B0CD17B68D3F8BC32DB6877
:103E7C00FA681078FA68527811469847FB68002265
:103E8C001A61002318461037BD4680BD80B483B03C
:103E9C0000AF78607B680A221A80034B18460C37F7
:103EAC00BD4680BC704700BFD000002080B485B0F8
:103EBC0000AF786039600223FB733B68002B05D0A0
:103ECC007B683A68C3F8BC220023FB73FB7B184663
:103EDC001437BD4680BC704780B584B000AFF86025
:103EEC00B9601346FB71FB68002B01D102231AE069
:103EFC00FB68D3F8B432002B03D0FB680022C3F864
:103F0C00B422BB68002B03D0FB68BA68C3F8B0229C
:103F1C00FB68012283F89C22FB68FA791A70F86816
:103F2C0001F07AFB002318461037BD4680BD80B4E3
:103F3C0085B000AF786039600023FB733B68002BC1
:103F4C0006D07B683A68C3F8B4220023FB7301E007
:103F5C000223FB73FB7B18461437BD4680BC7047AD
:103F6C0080B582B000AF7860786801F0A5FB0023C3
:103F7C0018460837BD4680BD80B483B000AF78606A
:103F8C00002318460C37BD4680BC704780B584B002
:103F9C0000AF78600B46FB700223FB737B68D3F891
:103FAC00B432002B0CD07B68D3F8B4321B68FA788F
:103FBC001146786898470346002B01D10023FB7308
:103FCC00FB7B18461037BD4680BD80B582B000AF74
:103FDC0078600B46FB707B68D3F8B4325B68FA7878
:103FEC00114678689847002318460837BD4680BDAF
:103FFC0080B582B000AF786039607B6803F52A73B6
:10400C003968184600F0CAFE7B680122C3F8942276
:10401C007B68B3F8AE321A467B68C3F898227B688B
:10402C0093F8A83203F01F03012B0CD0012B02D301
:10403C00022B10D017E07B6803F52A7319467868B9
:10404C0000F0CAF91AE07B6803F52A731946786800
:10405C0000F02CFA12E07B6803F52A731946786895
:10406C0000F06AFA0AE07B6893F8A83223F07F0329
:10407C00DBB21946786801F07FFB00BF00231846BD
:10408C000837BD4680BD80B586B000AFF8600B46E2
:10409C007A60FB72FB7A002B4BD1FB6803F5AA7399
:1040AC007B61FB68D3F89432032B34D17B69DA68DB
:1040BC007B691B699A4219D97B69DA687B691B6930
:1040CC00D21A7B69DA607B69DA687B691B699A4270
:1040DC0003D27B69DB689BB202E07B691B699BB2F4
:1040EC001A467968F86800F04BFF38E0FB68D3F8A3
:1040FC00B4321B69002B0AD0FB6893F89C32032B5B
:10410C0005D1FB68D3F8B4321B69F8689847F86896
:10411C0000F048FF23E0FB68D3F89432052B1ED146
:10412C00FB680022C3F894220021F86801F024FBFC
:10413C0015E0FB68D3F8B4329B69002B0DD0FB68FB
:10414C0093F89C32032B08D1FB68D3F8B4329B69EB
:10415C00FA7A1146F868984701E0022300E0002340
:10416C0018461837BD4680BD80B586B000AFF860E4
:10417C000B467A60FB72FB7A002B7FD1FB68143301
:10418C007B61FB68D3F89432022B5CD17B69DA68D3
:10419C007B691B699A4215D97B69DA687B691B6953
:1041AC00D21A7B69DA607B69DB689BB21A46796844
:1041BC00F86800F0B5FE002300220021F86801F039
:1041CC0080FB4EE07B699B687A691269B3FBF2F164
:1041DC0002FB01F29B1A002B1CD17B699A687B694C
:1041EC001B699A4216D37B699A68FB68D3F898329C
:1041FC009A420FD200220021F86800F091FEFB6871
:10420C000022C3F89822002300220021F86801F054
:10421C0058FB26E0FB68D3F8B432DB68002B0AD0DD
:10422C00FB6893F89C32032B05D1FB68D3F8B432AE
:10423C00DB68F86898478021F86801F09DFAF86807
:10424C0000F0C3FE0DE0FB68D3F89432042B04D0CD
:10425C00FB68D3F89432002B03D18021F86801F06D
:10426C008BFAFB6893F8A032012B1DD1F868FFF78D
:10427C0083FEFB68002283F8A02215E0FB68D3F8CC
:10428C00B4325B69002B0DD0FB6893F89C32032B86
:10429C0008D1FB68D3F8B4325B69FA7A1146F86836
:1042AC00984701E0022300E0002318461837BD466A
:1042BC0080BD80B582B000AF786040230022002121
:1042CC00786801F014FA7B680122C3F858217B68E6
:1042DC004022C3F86421402300228021786801F039
:1042EC0006FA7B6801229A617B6840225A627B68DD
:1042FC00012283F89C227B680022C3F894227B68FD
:10430C0000225A607B680022C3F8A4227B68D3F891
:10431C00B832002B09D07B68D3F8B4325B687A686A
:10432C005268D2B21146786898470023184608376D
:10433C00BD4680BD80B483B000AF78600B46FB7087
:10434C007B68FA781A74002318460C37BD4680BC7B
:10435C00704780B483B000AF78607B6893F89C2280
:10436C007B6883F89D227B68042283F89C220023BF
:10437C0018460C37BD4680BC704780B483B000AF84
:10438C0078607B6893F89C32042B05D17B6893F89A
:10439C009D227B6883F89C22002318460C37BD466F
:1043AC0080BC704780B582B000AF78607B6893F8B2
:1043BC009C32032B0BD17B68D3F8B432DB69002B16
:1043CC0005D07B68D3F8B432DB6978689847002352
:1043DC0018460837BD4680BD80B584B000AF786004
:1043EC0039600023FB733B681B7803F06003202BC0
:1043FC0004D0402B02D0002B08D04CE07B68D3F8C3
:10440C00B4329B6839687868984749E03B685B78B8
:10441C00092B3AD801A252F823F000BF79440008C6
:10442C008D44000897440008834400089744000812
:10443C005B44000851440008974400086F4400088E
:10444C00654400083968786800F0D4F922E03968CE
:10445C00786800F037FB1DE03968786800F074FB71
:10446C0018E03968786800F0FDFB13E0396878686B
:10447C0000F02CFC0EE03968786800F05AFC09E07A
:10448C003968786800F069FC04E03968786800F0F5
:10449C00C1FC00BF04E03968786800F0BBFC00BFC9
:1044AC00FB7B18461037BD4680BD00BF80B584B07D
:1044BC0000AF786039600023FB733B681B7803F016
:1044CC006003202B03D0402B01D0002B2AD17B681A
:1044DC0093F89C32013B022B1DD83B689B88DBB2C6
:1044EC00012B13D87B68D3F8B4329B683968786891
:1044FC0098470346FB733B68DB88002B10D1FB7B92
:10450C00002B0DD1786800F04DFD09E03968786812
:10451C0000F080FC04E03968786800F07BFC00E077
:10452C0000BF04E03968786800F074FC00BF002319
:10453C0018461037BD4680BD80B584B000AF78609A
:10454C0039600023FB733B689B88BB733B681B780B
:10455C0003F06003202B04D0402B02D0002B08D09A
:10456C003DE17B68D3F8B4329B683968786898472A
:10457C003AE13B681B7803F06003202B0AD17B687F
:10458C00D3F8B4329B683968786898470346FB7354
:10459C00FB7B2AE13B685B78012B3ED0032B02D0DE
:1045AC00002B70D015E17B6893F89C32022B02D063
:1045BC00032B15D02BE0BB7B002B0CD0BB7B802BB3
:1045CC0009D0BB7B1946786801F0D6F88021786851
:1045DC0001F0D2F820E03968786800F01BFC1BE091
:1045EC003B685B88002B0ED1BB7B002B0BD0BB7BBD
:1045FC00802B08D03B68DB88002B04D1BB7B194691
:10460C00786801F0B9F8786800F0CCFC04E03968FF
:10461C00786800F0FFFB00BFE0E07B6893F89C3209
:10462C00022B02D0032B15D026E0BB7B002B0CD029
:10463C00BB7B802B09D0BB7B1946786801F09CF8BA
:10464C008021786801F098F81CE03968786800F0EF
:10465C00E1FB17E03B685B88002B12D1BB7B03F0BE
:10466C007F03002B04D0BB7B1946786801F0A3F8BC
:10467C00786800F097FC04E03968786800F0CAFBB1
:10468C0000E000BFAAE07B6893F89C32022B02D0BA
:10469C00032B32D097E0BB7B002B07D0BB7B802B4E
:1046AC0004D03968786800F0B5FB91E097F90E30CA
:1046BC00002B0BDABB7B03F07F0213469B001344E9
:1046CC009B0010337A68134404330BE0BB7B03F07C
:1046DC007F0213469B0013449B0003F5A8737A6872
:1046EC0013440433BB60BB6800221A60BB6802220F
:1046FC001946786800F0F8FB6AE097F90E30002B49
:10470C0011DABB7B03F00F02796813469B0013444C
:10471C009B000B4418331B68002B17D13968786841
:10472C0000F078FB54E0BB7B03F00F027968134672
:10473C009B0013449B000B4403F5AC731B68002BCC
:10474C0004D13968786800F065FB41E097F90E30C8
:10475C00002B0BDABB7B03F07F0213469B00134448
:10476C009B0010337A68134404330BE0BB7B03F0DB
:10477C007F0213469B0013449B0003F5A8737A68D1
:10478C0013440433BB60BB7B002B02D0BB7B802B60
:10479C0003D1BB6800221A600EE0BB7B1946786817
:1047AC0001F028F80346002B03D0BB6801221A60E5
:1047BC0002E0BB6800221A60BB68022219467868C6
:1047CC0000F092FB04E03968786800F023FB00BF2E
:1047DC0004E03968786800F01DFB00BF04E039681C
:1047EC00786800F017FB00BFFB7B18461037BD46FE
:1047FC0080BD000080B584B000AF786039600023C4
:10480C003B810023FB600023FB723B685B881B0A27
:10481C009BB2013B062B00F2288101A252F823F037
:10482C004948000861480008A1480008774A000878
:10483C00774A0008174A0008434A00087B68D3F8F7
:10484C00B0321B687A68127C07F108011046984751
:10485C00F86012E17B681B7C002B0DD17B68D3F8D0
:10486C00B4329B6A07F1080210469847F860FB685F
:10487C00013302221A7000E17B68D3F8B432DB6A90
:10488C0007F1080210469847F860FB6801330222D2
:10489C001A70F2E03B685B88DBB2052B00F2AC804F
:1048AC0001A252F823F000BFCD48000801490008CE
:1048BC0035490008694900089D490008D14900089C
:1048CC007B68D3F8B0325B68002B0BD07B68D3F8D5
:1048DC00B0325B687A68127C07F108011046984781
:1048EC00F86091E03968786800F094FAFB7A01334B
:1048FC00FB7289E07B68D3F8B0329B68002B0BD03D
:10490C007B68D3F8B0329B687A68127C07F1080197
:10491C0010469847F86077E03968786800F07AFAC2
:10492C00FB7A0133FB726FE07B68D3F8B032DB6843
:10493C00002B0BD07B68D3F8B032DB687A68127C22
:10494C0007F1080110469847F8605DE0396878680F
:10495C0000F060FAFB7A0133FB7255E07B68D3F808
:10496C00B0321B69002B0BD07B68D3F8B0321B69BB
:10497C007A68127C07F1080110469847F86043E00A
:10498C003968786800F046FAFB7A0133FB723BE039
:10499C007B68D3F8B0325B69002B0BD07B68D3F803
:1049AC00B0325B697A68127C07F1080110469847AF
:1049BC00F86029E03968786800F02CFAFB7A01334A
:1049CC00FB7221E07B68D3F8B0329B69002B0BD0D3
:1049DC007B68D3F8B0329B697A68127C07F10801C6
:1049EC0010469847F8600FE03968786800F012FAC2
:1049FC00FB7A0133FB7207E03968786800F00AFA39
:104A0C00FB7A0133FB7238E037E07B681B7C002BB0
:104A1C0009D17B68D3F8B4325B6B07F108021046FE
:104A2C009847F86029E03968786800F0F3F9FB7A68
:104A3C000133FB7221E07B681B7C002B0DD17B6862
:104A4C00D3F8B4321B6B07F1080210469847F86094
:104A5C00FB68013307221A700FE03968786800F0A0
:104A6C00D9F9FB7A0133FB7207E03968786800F0FA
:104A7C00D1F9FB7A0133FB7200BFFB7A002B1CD1FE
:104A8C003B89002B11D03B68DB88002B0DD03B6899
:104A9C00DA883B89934228BF13469BB23B813B8902
:104AAC001A46F968786800F01FFA3B68DB88002B1F
:104ABC0004D1786800F076FA00E000BF1037BD46EC
:104ACC0080BD00BF80B584B000AF786039603B68B2
:104ADC009B88002B30D13B68DB88002B2CD13B68AA
:104AEC005B887F2B28D83B685B88DBB203F07F03A5
:104AFC00FB737B6893F89C32032B04D1396878687C
:104B0C0000F088F91CE07B68FA7B83F89E22FB7B23
:104B1C001946786800F093FE786800F043FAFB7B46
:104B2C00002B04D07B68022283F89C2208E07B686F
:104B3C00012283F89C2203E03968786800F06AF956
:104B4C0000BF1037BD4680BD80B582B000AF786025
:104B5C0039603B685B88DAB2414B1A70404B1B786A
:104B6C00012B04D93968786800F054F975E07B683A
:104B7C0093F89C32022B02D0032B23D062E0384BEB
:104B8C001B78002B1AD0364B1B781A467B685A6060
:104B9C007B68032283F89C22314B1B78194678687A
:104BAC00FFF7F4F90346022B04D13968786800F05A
:104BBC0031F952E0786800F0F5F94EE0786800F0D1
:104BCC00F1F94AE0264B1B78002B12D17B680222AC
:104BDC0083F89C22224B1B781A467B685A60204B28
:104BEC001B7819467868FFF7F0F9786800F0DAF965
:104BFC0033E01B4B1B781A467B685B689A421DD0CE
:104C0C007B685B68DBB219467868FFF7DEF9144BFA
:104C1C001B781A467B685A60114B1B7819467868CA
:104C2C00FFF7B4F90346022B04D13968786800F019
:104C3C00F1F812E0786800F0B5F90EE0786800F051
:104C4C00B1F90AE03968786800F0E4F8044B1B7895
:104C5C0019467868FFF7B9F900BF0837BD4680BD23
:104C6C00EC01002080B582B000AF786039603B6801
:104C7C00DB88012B04D03968786800F0CBF821E090
:104C8C007B6893F89C32012B17DB022B02DD032B84
:104C9C000BD012E07B6800229A607B6808330122FB
:104CAC001946786800F020F90CE07B680433012287
:104CBC001946786800F018F904E03968786800F053
:104CCC00A9F800BF00BF0837BD4680BD80B582B0D3
:104CDC0000AF786039607B6893F89C32013B022B03
:104CEC001ED83B68DB88022B04D03968786800F04A
:104CFC0091F81AE07B680122DA607B68D3F8A43261
:104D0C00002B05D07B68DB6843F002027B68DA601D
:104D1C007B680C3302221946786800F0E5F804E051
:104D2C003968786800F076F800BF00BF0837BD46D8
:104D3C0080BD80B582B000AF786039603B685B881D
:104D4C00012B06D17B680122C3F8A422786800F0FD
:104D5C0029F900BF0837BD4680BD80B582B000AFD1
:104D6C00786039607B6893F89C32013B022B0BD83E
:104D7C003B685B88012B0CD17B680022C3F8A42212
:104D8C00786800F00FF904E03968786800F042F8B0
:104D9C0000E000BF00BF0837BD4680BD80B483B0C3
:104DAC0000AF786039603B681A787B681A703B6892
:104DBC005A787B685A703B6802331B789AB23B680E
:104DCC0003331B789BB21B029BB213449AB27B68D1
:104DDC005A803B6804331B789AB23B6805331B78C6
:104DEC009BB21B029BB213449AB27B689A803B68BD
:104DFC0006331B789AB23B6807331B789BB21B02B5
:104E0C009BB213449AB27B68DA8000BF0C37BD4664
:104E1C0080BC704780B582B000AF7860396080216B
:104E2C00786800F0A9FC0021786800F0A5FC00BFB0
:104E3C000837BD4680BD80B586B000AFF860B9605C
:104E4C007A600023FB75FB68002B32D0F86800F009
:104E5C0034F8034601339BB25B009AB27B681A802C
:104E6C00FB7D5A1CFA751A46BB6813447A68127893
:104E7C001A70FB7D5A1CFA751A46BB681344032240
:104E8C001A7012E0FB685A1CFA60FA7D511CF97515
:104E9C001146BA680A441B781370FB7D5A1CFA75CC
:104EAC001A46BB68134400221A70FB681B78002B4F
:104EBC00E8D100BF1837BD4680BD80B485B000AFC7
:104ECC0078600023FB7305E0FB7B0133FB737B688D
:104EDC0001337B607B681B78002BF5D1FB7B18467C
:104EEC001437BD4680BC704780B584B000AFF86005
:104EFC00B9601346FB80FB680222C3F89422FA883F
:104F0C00FB68DA61FA88FB681A62FB88BA680021D0
:104F1C00F86800F0B3FC002318461037BD4680BD7E
:104F2C0080B584B000AFF860B9601346FB80FB8895
:104F3C00BA680021F86800F0A1FC0023184610376D
:104F4C00BD4680BD80B584B000AFF860B960134633
:104F5C00FB80FB680322C3F89422FA88FB68C3F831
:104F6C005C21FA88FB68C3F86021FB88BA680021D1
:104F7C00F86800F0A6FC002318461037BD4680BD2B
:104F8C0080B584B000AFF860B9601346FB80FB8835
:104F9C00BA680021F86800F094FC0023184610371A
:104FAC00BD4680BD80B582B000AF78607B680422BE
:104FBC00C3F89422002300220021786800F05EFCE4
:104FCC00002318460837BD4680BD80B582B000AFBF
:104FDC0078607B680522C3F894220023002200210C
:104FEC00786800F06EFC002318460837BD4680BD7B
:104FFC0080B584B000AFFBF7A3F800F03BF800F0ED
:10500C00D5F800F095F800F01BFA0023FB72164857
:10501C00FBF7D0F964211448FBF77AFA1248FBF736
:10502C0071FB03469BB23B813B89BB803B1D02223B
:10503C0019460E48FEF786FE02210D48FBF75AFF73
:10504C000346FB720023FB6009E007F10B0301220E
:10505C0019460648FEF776FEFB680133FB60FB68D9
:10506C00072BF2DDD3E700BF1C0200204C0200200E
:10507C000008014080B594B000AF07F12803282246
:10508C000021184600F02CFE07F1140300221A60D0
:10509C005A609A60DA601A613B1D00221A605A60ED
:1050AC009A60DA600123BB624FF48033FB62002309
:1050BC003B630123BB6302237B644FF48033BB64EB
:1050CC004FF4E013FB6407F128031846FCF7F6FDD8
:1050DC000346002B01D000F0ABF80F237B610223B9
:1050EC00BB610023FB614FF480633B6200237B6256
:1050FC0007F1140302211846FDF760F80346002B54
:10510C0001D000F095F812237B604FF40043FB6054
:10511C0000233B613B1D1846FDF7D8F90346002BD5
:10512C0001D000F085F800BF5037BD4680BD0000AF
:10513C0080B584B000AF3B1D00221A605A609A60A3
:10514C00184B194A1A60174B00229A60154B002213
:10515C001A73144B00221A75124B4FF46022DA6149
:10516C00104B00225A600F4B01221A610D48FBF7BD
:10517C0049F80346002B01D000F05AF800237B605D
:10518C000123BB600023FB603B1D19460548FBF760
:10519C00C5FA0346002B01D000F04AF800BF1037C7
:1051AC00BD4680BD1C0200200024014080B588B0A3
:1051BC0000AF07F1100300221A605A609A60DA609F
:1051CC00194B9B69184A43F010039361164B9B696A
:1051DC0003F01003FB60FB68134B9B69124A43F00E
:1051EC0020039361104B9B6903F02003BB60BB68E9
:1051FC000D4B9B690C4A43F0040393610A4B9B696A
:10520C0003F004037B607B6802233B6100237B611A
:10521C000223BB6107F1100319460448FBF710FD8C
:10522C0000BF2037BD4680BD001002400008014081
:10523C0080B400AF00BFBD4680BC704780B485B061
:10524C0000AF154B9B69144A43F001039361124B59
:10525C009B6903F00103BB60BB680F4BDB690E4A13
:10526C0043F08053D3610C4BDB6903F080537B60BC
:10527C007B680A4B5B68FB60FB6823F0E063FB60B8
:10528C00FB6843F00073FB60044AFB68536000BF8B
:10529C001437BD4680BC704700100240000001402E
:1052AC0080B588B000AF786007F1100300221A6057
:1052BC005A609A60DA607B681B68144A934221D169
:1052CC00134B9B69124A43F400739361104B9B6917
:1052DC0003F40073FB60FB680D4B9B690C4A43F0B5
:1052EC00040393610A4B9B6903F00403BB60BB6826
:1052FC0001233B6103237B6107F110031946054829
:10530C00FBF79EFC00BF2037BD4680BD002401404A
:10531C00001002400008014080B400AF00BFBD4641
:10532C0080BC704780B400AFFEE780B400AFFEE7EE
:10533C0080B400AFFEE780B400AFFEE780B400AFEE
:10534C0000BFBD4680BC704780B400AF00BFBD46F7
:10535C0080BC704780B400AF00BFBD4680BC7047B6
:10536C0080B500AFFAF732FF00BF80BD80B500AF4B
:10537C000248FBF7DDFE00BF80BD00BF100500201A
:10538C0080B584B000AF7860114B1B68002B02D144
:10539C000F4B104A1A600E4B1B68FB600C4B1A68C3
:1053AC007B6813446A46934207D900F06FFC0246AF
:1053BC000C2313604FF0FF3306E0054B1A687B6833
:1053CC001344034A1360FB6818461037BD4680BD72
:1053DC00F00100208009002080B400AF154B1B6841
:1053EC00144A43F001031360124B5A681149124BD3
:1053FC0013404B600F4B1B680E4A23F0847323F44D
:10540C00803313600B4B1B680A4A23F48023136010
:10541C00084B5B68074A23F4FE035360054B4FF4BB
:10542C001F029A60054B4FF000629A6000BFBD46A8
:10543C0080BC7047001002400000FFF800ED00E057
:10544C0080B500AF002212491248FEF745FD034615
:10545C00002B01D0FFF7ECFE0F490E48FEF767FD5D
:10546C000346002B01D0FFF7E3FE0C490948FEF779
:10547C001DFD0346002B01D0FFF7DAFE0548FEF7B1
:10548C006FFD0346002B01D0FFF7D2FE00BF80BD9D
:10549C001C0100204C020020080000200C01002000
:1054AC0080B584B000AF78607B681B680D4A93426E
:1054BC0013D10D4BDB690C4A43F40003D3610A4B47
:1054CC00DB6903F40003FB60FB680022002114205D
:1054DC00FBF77FFB1420FBF798FB00BF1037BD4692
:1054EC0080BD00BF005C00400010024080B582B05F
:1054FC0000AF78607B68D3F868227B6803F50C7387
:10550C0019461046FEF774FD00BF0837BD4680BD36
:10551C0080B582B000AF78600B46FB707B68D3F827
:10552C006802FB787A685B01134403F59E731A6872
:10553C00FB781946FEF7A7FD00BF0837BD4680BDB6
:10554C0080B582B000AF78600B46FB707B68D3F8F7
:10555C006802FB787A685B0113443C331A68FB7869
:10556C001946FEF701FE00BF0837BD4680BD80B569
:10557C0082B000AF78607B68D3F868321846FEF7CB
:10558C0011FF00BF0837BD4680BD80B584B000AFA9
:10559C0078600123FB737B689B68022B01D0FFF7BB
:1055AC0047FE7B68D3F86832FA7B11461846FEF743
:1055BC00C1FE7B68D3F868321846FEF77AFE00BF4E
:1055CC001037BD4680BD000080B582B000AF78605A
:1055DC007B68D3F868321846FEF7BBFE7B689B6984
:1055EC00002B05D0044B1B69034A43F006031361DF
:1055FC0000BF0837BD4680BD00ED00E080B582B02D
:10560C0000AF78607B68D3F868321846FEF7B5FEB9
:10561C0000BF0837BD4680BD80B582B000AF786052
:10562C00234A7B68C2F868327B68214AC3F8C022DF
:10563C001F4B204A1A601E4B08225A601C4B022238
:10564C009A601B4B00229A61194B0022DA61184BAD
:10565C0000221A621648FBF764FC0346002B01D0AB
:10566C00FFF7E6FD7B68D3F8C00218230022002167
:10567C00FCF7E8FA7B68D3F8C0025823002280219B
:10568C00FCF7E0FA7B68D3F8C00298230022812152
:10569C00FCF7D8FA7B68D3F8C002D823002201218A
:1056AC00FCF7D0FA002318460837BD4680BD00BF72
:1056BC0010050020005C004080B584B000AF78601D
:1056CC000023FB730023BB737B68D3F8C0321846EE
:1056DC00FBF708FD0346FB73FB7B184600F034F91F
:1056EC000346BB73BB7B18461037BD4680BD80B5E7
:1056FC0084B000AF7860084611461A460346FB702A
:10570C000B46BB7013463B800023FB730023BB731B
:10571C007B68D3F8C002BB783A88F978FBF73BFE7C
:10572C000346FB73FB7B184600F00EF90346BB7374
:10573C00BB7B18461037BD4680BD80B584B000AF2A
:10574C0078600B46FB700023FB730023BB737B68F4
:10575C00D3F8C032FA7811461846FBF77CFE0346A4
:10576C00FB73FB7B184600F0EFF80346BB73BB7B67
:10577C0018461037BD4680BD80B584B000AF786048
:10578C000B46FB700023FB730023BB737B68D3F8C1
:10579C00C032FA7811461846FBF712FF0346FB732A
:1057AC00FB7B184600F0D0F80346BB73BB7B184656
:1057BC001037BD4680BD80B584B000AF78600B4615
:1057CC00FB700023FB730023BB737B68D3F8C032E0
:1057DC00FA7811461846FBF74DFF0346FB73FB7B2B
:1057EC00184600F0B1F80346BB73BB7B1846103764
:1057FC00BD4680BD80B485B000AF78600B46FB70B1
:10580C007B68D3F8C032FB6097F90330002B08DAC1
:10581C00FB7803F07F03FA685B0113442A331B788F
:10582C0008E0FB7803F07F03FA685B01134403F58F
:10583C0095731B7818461437BD4680BC704780B5ED
:10584C0084B000AF78600B46FB700023FB73002321
:10585C00BB737B68D3F8C032FA7811461846FBF755
:10586C0075FD0346FB73FB7B184600F06DF8034691
:10587C00BB73BB7B18461037BD4680BD80B586B068
:10588C0000AFF8607A601A460B46FB7213463B81F8
:10589C000023FB750023BB75FB68D3F8C0023B8962
:1058AC00F97A7A68FBF753FE0346FB75FB7D1846C5
:1058BC0000F04AF80346BB75BB7D18461837BD4649
:1058CC0080BD80B586B000AFF8607A601A460B4692
:1058DC00FB7213463B810023FB750023BB75FB68F1
:1058EC00D3F8C0023B89F97A7A68FBF7F6FD0346D8
:1058FC00FB75FB7D184600F027F80346BB75BB7D96
:10590C0018461837BD4680BD80B483B000AF7860B0
:10591C00024B18460C37BD4680BC7047F401002082
:10592C0080B483B000AF786000BF0C37BD4680BC3C
:10593C00704780B483B000AF78600B46FB7000BF3B
:10594C000C37BD4680BC704780B485B000AF0346B1
:10595C00FB710023FB73FB79032B17D801A252F8C0
:10596C0023F000BF81590008875900088D590008A1
:10597C00935900080023FB730BE00223FB7308E030
:10598C000123FB7305E00223FB7302E00223FB738C
:10599C0000BFFB7B18461437BD4680BC704700BF68
:1059AC0080B400AF00231846BD4680BC704780B45D
:1059BC0000AF00231846BD4680BC704780B584B04C
:1059CC0000AF03460A46FB711346BB71FAF710FC95
:1059DC000346184600F08CF900F0AEF903465A4223
:1059EC00DBB2D2B258BF5342DBB2013BDBB23B73EA
:1059FC0000F0A2F903465A42DBB2D2B258BF53426E
:105A0C00DBB2013BDBB27B7307F10C0302221946BC
:105A1C000348FEF797F9002318461037BD4680BDA2
:105A2C004C02002080B483B000AF03463960FB7198
:105A3C003B6812221A80034B18460C37BD4680BCBB
:105A4C00704700BF3801002080B483B000AF03461C
:105A5C003960FB713B6804221A80034B18460C37E3
:105A6C00BD4680BC704700BF4C01002080B582B0A1
:105A7C0000AF03463960FB71FB79002B05D13A6806
:105A8C0007490848FFF7D7F904E03A680449054884
:105A9C00FFF7D1F9024B18460837BD4680BD00BF51
:105AAC007C070020D45E000880B582B000AF0346AE
:105ABC003960FB713A6804490448FFF7BCF9024BA2
:105ACC0018460837BD4680BD7C070020F85E0008EC
